{
    "contractName": "EmployeeRegistry",
    "abi": [
        {
            "inputs": [],
            "stateMutability": "nonpayable",
            "type": "constructor"
        },
        {
            "anonymous": false,
            "inputs": [
                {
                    "indexed": false,
                    "internalType": "string",
                    "name": "employeeId",
                    "type": "string"
                },
                {
                    "indexed": false,
                    "internalType": "uint256",
                    "name": "timestamp",
                    "type": "uint256"
                }
            ],
            "name": "EmployeeAdded",
            "type": "event"
        },
        {
            "anonymous": false,
            "inputs": [
                {
                    "indexed": false,
                    "internalType": "string",
                    "name": "employeeId",
                    "type": "string"
                },
                {
                    "indexed": false,
                    "internalType": "uint256",
                    "name": "timestamp",
                    "type": "uint256"
                }
            ],
            "name": "EmployeeDeactivated",
            "type": "event"
        },
        {
            "anonymous": false,
            "inputs": [
                {
                    "indexed": false,
                    "internalType": "string",
                    "name": "employeeId",
                    "type": "string"
                },
                {
                    "indexed": false,
                    "internalType": "uint256",
                    "name": "timestamp",
                    "type": "uint256"
                }
            ],
            "name": "EmployeeUpdated",
            "type": "event"
        },
        {
            "inputs": [
                {
                    "internalType": "string",
                    "name": "_employeeId",
                    "type": "string"
                },
                {
                    "internalType": "string",
                    "name": "_encryptedData",
                    "type": "string"
                }
            ],
            "name": "addEmployee",
            "outputs": [],
            "stateMutability": "nonpayable",
            "type": "function"
        },
        {
            "inputs": [
                {
                    "internalType": "string",
                    "name": "_employeeId",
                    "type": "string"
                },
                {
                    "internalType": "string",
                    "name": "_encryptedData",
                    "type": "string"
                }
            ],
            "name": "updateEmployee",
            "outputs": [],
            "stateMutability": "nonpayable",
            "type": "function"
        },
        {
            "inputs": [
                {
                    "internalType": "string",
                    "name": "_employeeId",
                    "type": "string"
                }
            ],
            "name": "deactivateEmployee",
            "outputs": [],
            "stateMutability": "nonpayable",
            "type": "function"
        },
        {
            "inputs": [
                {
                    "internalType": "string",
                    "name": "_employeeId",
                    "type": "string"
                }
            ],
            "name": "getEmployee",
            "outputs": [
                {
                    "internalType": "string",
                    "name": "",
                    "type": "string"
                },
                {
                    "internalType": "string",
                    "name": "",
                    "type": "string"
                },
                {
                    "internalType": "uint256",
                    "name": "",
                    "type": "uint256"
                },
                {
                    "internalType": "bool",
                    "name": "",
                    "type": "bool"
                }
            ],
            "stateMutability": "view",
            "type": "function"
        },
        {
            "inputs": [],
            "name": "getAllEmployeeIds",
            "outputs": [
                {
                    "internalType": "string[]",
                    "name": "",
                    "type": "string[]"
                }
            ],
            "stateMutability": "view",
            "type": "function"
        }
    ],
    "bytecode": "0x608060405234801561001057600080fd5b5033600260006101000a81548173ffffffffffffffffffffffffffffffffffffffff021916908373ffffffffffffffffffffffffffffffffffffffff16021790555061118f806100616000396000f3fe608060405234801561001057600080fd5b50600436106100575760003560e01c806315f680e11461005c5780631fcf522f14610078578063283fb317146100965780633e9231cd146100b257806385c5225c146100ce575b600080fd5b61007660048036038101906100719190610b3c565b610101565b005b610080610307565b60405161008d9190610e49565b60405180910390f35b6100b060048036038101906100ab9190610afb565b6103e0565b005b6100cc60048036038101906100c79190610b3c565b6105e8565b005b6100e860048036038101906100e39190610afb565b610809565b6040516100f89493929190610e6b565b60405180910390f35b600260009054906101000a900473ffffffffffffffffffffffffffffffffffffffff1673ffffffffffffffffffffffffffffffffffffffff163373ffffffffffffffffffffffffffffffffffffffff1614610191576040517f08c379a000000000000000000000000000000000000000000000000000000000815260040161018890610f6e565b60405180910390fd5b600080836040516101a29190610e32565b908152602001604051809103902060000180546101be906110b8565b905011610200576040517f08c379a00000000000000000000000000000000000000000000000000000000081526004016101f790610f2e565b60405180910390fd5b6000826040516102109190610e32565b908152602001604051809103902060030160009054906101000a900460ff1661026e576040517f08c379a000000000000000000000000000000000000000000000000000000000815260040161026590610f4e565b60405180910390fd5b8060008360405161027f9190610e32565b908152602001604051809103902060010190805190602001906102a39291906109f0565b50426000836040516102b59190610e32565b9081526020016040518091039020600201819055507f7d5eaf5b3069d439786525035d92013c6f1cfaef0c2395d07100f336d273e04282426040516102fb929190610ebe565b60405180910390a15050565b60606001805480602002602001604051908101604052809291908181526020016000905b828210156103d757838290600052602060002001805461034a906110b8565b80601f0160208091040260200160405190810160405280929190818152602001828054610376906110b8565b80156103c35780601f10610398576101008083540402835291602001916103c3565b820191906000526020600020905b8154815290600101906020018083116103a657829003601f168201915b50505050508152602001906001019061032b565b50505050905090565b600260009054906101000a900473ffffffffffffffffffffffffffffffffffffffff1673ffffffffffffffffffffffffffffffffffffffff163373ffffffffffffffffffffffffffffffffffffffff1614610470576040517f08c379a000000000000000000000000000000000000000000000000000000000815260040161046790610f6e565b60405180910390fd5b600080826040516104819190610e32565b9081526020016040518091039020600001805461049d906110b8565b9050116104df576040517f08c379a00000000000000000000000000000000000000000000000000000000081526004016104d690610f2e565b60405180910390fd5b6000816040516104ef9190610e32565b908152602001604051809103902060030160009054906101000a900460ff1661054d576040517f08c379a000000000000000000000000000000000000000000000000000000000815260040161054490610eee565b60405180910390fd5b6000808260405161055e9190610e32565b908152602001604051809103902060030160006101000a81548160ff021916908315150217905550426000826040516105979190610e32565b9081526020016040518091039020600201819055507fc6650377a5d3ea9d8b8a947a244c5a9ee4b9f426f32a06b71a7400f191a234ec81426040516105dd929190610ebe565b60405180910390a150565b600260009054906101000a900473ffffffffffffffffffffffffffffffffffffffff1673ffffffffffffffffffffffffffffffffffffffff163373ffffffffffffffffffffffffffffffffffffffff1614610678576040517f08c379a000000000000000000000000000000000000000000000000000000000815260040161066f90610f6e565b60405180910390fd5b600080836040516106899190610e32565b908152602001604051809103902060000180546106a5906110b8565b9050146106e7576040517f08c379a00000000000000000000000000000000000000000000000000000000081526004016106de90610f0e565b60405180910390fd5b60405180608001604052808381526020018281526020014281526020016001151581525060008360405161071b9190610e32565b908152602001604051809103902060008201518160000190805190602001906107459291906109f0565b5060208201518160010190805190602001906107629291906109f0565b506040820151816002015560608201518160030160006101000a81548160ff0219169083151502179055509050506001829080600181540180825580915050600190039060005260206000200160009091909190915090805190602001906107cb9291906109f0565b507f32e1fc78a060d9f3ce5eb63a23bda8968a9bc65803f653d3003a7309f6e0aad982426040516107fd929190610ebe565b60405180910390a15050565b606080600080600080866040516108209190610e32565b9081526020016040518091039020604051806080016040529081600082018054610849906110b8565b80601f0160208091040260200160405190810160405280929190818152602001828054610875906110b8565b80156108c25780601f10610897576101008083540402835291602001916108c2565b820191906000526020600020905b8154815290600101906020018083116108a557829003601f168201915b505050505081526020016001820180546108db906110b8565b80601f0160208091040260200160405190810160405280929190818152602001828054610907906110b8565b80156109545780601f1061092957610100808354040283529160200191610954565b820191906000526020600020905b81548152906001019060200180831161093757829003601f168201915b50505050508152602001600282015481526020016003820160009054906101000a900460ff16151515158152505090506000816000015151116109cc576040517f08c379a00000000000000000000000000000000000000000000000000000000081526004016109c390610f2e565b60405180910390fd5b80600001518160200151826040015183606001519450945094509450509193509193565b8280546109fc906110b8565b90600052602060002090601f016020900481019282610a1e5760008555610a65565b82601f10610a3757805160ff1916838001178555610a65565b82800160010185558215610a65579182015b82811115610a64578251825591602001919060010190610a49565b5b509050610a729190610a76565b5090565b5b80821115610a8f576000816000905550600101610a77565b5090565b6000610aa6610aa184610fbf565b610f8e565b905082815260208101848484011115610abe57600080fd5b610ac9848285611076565b509392505050565b600082601f830112610ae257600080fd5b8135610af2848260208601610a93565b91505092915050565b600060208284031215610b0d57600080fd5b600082013567ffffffffffffffff811115610b2757600080fd5b610b3384828501610ad1565b91505092915050565b60008060408385031215610b4f57600080fd5b600083013567ffffffffffffffff811115610b6957600080fd5b610b7585828601610ad1565b925050602083013567ffffffffffffffff811115610b9257600080fd5b610b9e85828601610ad1565b9150509250929050565b6000610bb48383610c40565b905092915050565b6000610bc782610fff565b610bd18185611022565b935083602082028501610be385610fef565b8060005b85811015610c1f5784840389528151610c008582610ba8565b9450610c0b83611015565b925060208a01995050600181019050610be7565b50829750879550505050505092915050565b610c3a81611060565b82525050565b6000610c4b8261100a565b610c558185611033565b9350610c65818560208601611085565b610c6e81611148565b840191505092915050565b6000610c848261100a565b610c8e8185611044565b9350610c9e818560208601611085565b610ca781611148565b840191505092915050565b6000610cbd8261100a565b610cc78185611055565b9350610cd7818560208601611085565b80840191505092915050565b6000610cf0601983611044565b91507f456d706c6f79656520616c726561647920696e616374697665000000000000006000830152602082019050919050565b6000610d30601783611044565b91507f456d706c6f79656520616c7265616479206578697374730000000000000000006000830152602082019050919050565b6000610d70601783611044565b91507f456d706c6f79656520646f6573206e6f742065786973740000000000000000006000830152602082019050919050565b6000610db0601683611044565b91507f456d706c6f796565206973206e6f7420616374697665000000000000000000006000830152602082019050919050565b6000610df0600e83611044565b91507f4e6f7420617574686f72697a65640000000000000000000000000000000000006000830152602082019050919050565b610e2c8161106c565b82525050565b6000610e3e8284610cb2565b915081905092915050565b60006020820190508181036000830152610e638184610bbc565b905092915050565b60006080820190508181036000830152610e858187610c79565b90508181036020830152610e998186610c79565b9050610ea86040830185610e23565b610eb56060830184610c31565b95945050505050565b60006040820190508181036000830152610ed88185610c79565b9050610ee76020830184610e23565b9392505050565b60006020820190508181036000830152610f0781610ce3565b9050919050565b60006020820190508181036000830152610f2781610d23565b9050919050565b60006020820190508181036000830152610f4781610d63565b9050919050565b60006020820190508181036000830152610f6781610da3565b9050919050565b60006020820190508181036000830152610f8781610de3565b9050919050565b6000604051905081810181811067ffffffffffffffff82111715610fb557610fb4611119565b5b8060405250919050565b600067ffffffffffffffff821115610fda57610fd9611119565b5b601f19601f8301169050602081019050919050565b6000819050602082019050919050565b600081519050919050565b600081519050919050565b6000602082019050919050565b600082825260208201905092915050565b600082825260208201905092915050565b600082825260208201905092915050565b600081905092915050565b60008115159050919050565b6000819050919050565b82818337600083830152505050565b60005b838110156110a3578082015181840152602081019050611088565b838111156110b2576000848401525b50505050565b600060028204905060018216806110d057607f821691505b602082108114156110e4576110e36110ea565b5b50919050565b7f4e487b7100000000000000000000000000000000000000000000000000000000600052602260045260246000fd5b7f4e487b7100000000000000000000000000000000000000000000000000000000600052604160045260246000fd5b6000601f19601f830116905091905056fea2646970667358221220aab7d59ba08361e30b0a6e96a7ac9a8aaf94ab5e00410228761e8f31a8c3610864736f6c63430008000033",
    "immutableReferences": {},
    "source": "// SPDX-License-Identifier: MIT\r\npragma solidity ^0.8.0;\r\n\r\ncontract EmployeeRegistry {\r\n    struct Employee {\r\n        string employeeId;\r\n        string encryptedData;\r\n        uint256 timestamp;\r\n        bool isActive;\r\n    }\r\n    \r\n    mapping(string => Employee) private employees;\r\n    string[] private employeeIds;\r\n    address private owner;\r\n    \r\n    event EmployeeAdded(string employeeId, uint256 timestamp);\r\n    event EmployeeUpdated(string employeeId, uint256 timestamp);\r\n    event EmployeeDeactivated(string employeeId, uint256 timestamp);\r\n    \r\n    constructor() {\r\n        owner = msg.sender;\r\n    }\r\n    \r\n    modifier onlyOwner() {\r\n        require(msg.sender == owner, \"Not authorized\");\r\n        _;\r\n    }\r\n    \r\n    function addEmployee(string memory _employeeId, string memory _encryptedData) public onlyOwner {\r\n        require(bytes(employees[_employeeId].employeeId).length == 0, \"Employee already exists\");\r\n        \r\n        employees[_employeeId] = Employee({\r\n            employeeId: _employeeId,\r\n            encryptedData: _encryptedData,\r\n            timestamp: block.timestamp,\r\n            isActive: true\r\n        });\r\n        \r\n        employeeIds.push(_employeeId);\r\n        emit EmployeeAdded(_employeeId, block.timestamp);\r\n    }\r\n    \r\n    function updateEmployee(string memory _employeeId, string memory _encryptedData) public onlyOwner {\r\n        require(bytes(employees[_employeeId].employeeId).length > 0, \"Employee does not exist\");\r\n        require(employees[_employeeId].isActive, \"Employee is not active\");\r\n        \r\n        employees[_employeeId].encryptedData = _encryptedData;\r\n        employees[_employeeId].timestamp = block.timestamp;\r\n        \r\n        emit EmployeeUpdated(_employeeId, block.timestamp);\r\n    }\r\n    \r\n    function deactivateEmployee(string memory _employeeId) public onlyOwner {\r\n        require(bytes(employees[_employeeId].employeeId).length > 0, \"Employee does not exist\");\r\n        require(employees[_employeeId].isActive, \"Employee already inactive\");\r\n        \r\n        employees[_employeeId].isActive = false;\r\n        employees[_employeeId].timestamp = block.timestamp;\r\n        \r\n        emit EmployeeDeactivated(_employeeId, block.timestamp);\r\n    }\r\n    \r\n    function getEmployee(string memory _employeeId) public view returns (string memory, string memory, uint256, bool) {\r\n        Employee memory employee = employees[_employeeId];\r\n        require(bytes(employee.employeeId).length > 0, \"Employee does not exist\");\r\n        \r\n        return (\r\n            employee.employeeId,\r\n            employee.encryptedData,\r\n            employee.timestamp,\r\n            employee.isActive\r\n        );\r\n    }\r\n    \r\n    function getAllEmployeeIds() public view returns (string[] memory) {\r\n        return employeeIds;\r\n    }\r\n}",
    "sourcePath": "D:\\Backend\\code\\HRM-Backend\\CoreChainServer\\src\\blockchain\\contracts\\EmployeeRegistry.sol",
    "compiler": {
        "name": "solc",
        "version": "0.8.0+commit.c7dfd78e.Emscripten.clang"
    },
    "schemaVersion": "3.4.16",
    "updatedAt": "2025-03-15T15:00:29.539Z",
    "devdoc": {
        "kind": "dev",
        "methods": {},
        "version": 1
    },
    "userdoc": {
        "kind": "user",
        "methods": {},
        "version": 1
    }
}