{
  "contractName": "EmployeeRegistry",
  "abi": [
    {
      "inputs": [],
      "stateMutability": "nonpayable",
      "type": "constructor"
    },
    {
      "anonymous": false,
      "inputs": [
        {
          "indexed": false,
          "internalType": "string",
          "name": "employeeId",
          "type": "string"
        },
        {
          "indexed": false,
          "internalType": "uint256",
          "name": "timestamp",
          "type": "uint256"
        }
      ],
      "name": "EmployeeAdded",
      "type": "event"
    },
    {
      "anonymous": false,
      "inputs": [
        {
          "indexed": false,
          "internalType": "string",
          "name": "employeeId",
          "type": "string"
        },
        {
          "indexed": false,
          "internalType": "uint256",
          "name": "timestamp",
          "type": "uint256"
        }
      ],
      "name": "EmployeeDeactivated",
      "type": "event"
    },
    {
      "anonymous": false,
      "inputs": [
        {
          "indexed": false,
          "internalType": "string",
          "name": "employeeId",
          "type": "string"
        },
        {
          "indexed": false,
          "internalType": "uint256",
          "name": "timestamp",
          "type": "uint256"
        }
      ],
      "name": "EmployeeUpdated",
      "type": "event"
    },
    {
      "inputs": [
        {
          "internalType": "string",
          "name": "_employeeId",
          "type": "string"
        },
        {
          "internalType": "string",
          "name": "_encryptedData",
          "type": "string"
        }
      ],
      "name": "addEmployee",
      "outputs": [],
      "stateMutability": "nonpayable",
      "type": "function"
    },
    {
      "inputs": [
        {
          "internalType": "string",
          "name": "_employeeId",
          "type": "string"
        },
        {
          "internalType": "string",
          "name": "_encryptedData",
          "type": "string"
        }
      ],
      "name": "updateEmployee",
      "outputs": [],
      "stateMutability": "nonpayable",
      "type": "function"
    },
    {
      "inputs": [
        {
          "internalType": "string",
          "name": "_employeeId",
          "type": "string"
        }
      ],
      "name": "deactivateEmployee",
      "outputs": [],
      "stateMutability": "nonpayable",
      "type": "function"
    },
    {
      "inputs": [
        {
          "internalType": "string",
          "name": "_employeeId",
          "type": "string"
        }
      ],
      "name": "getEmployee",
      "outputs": [
        {
          "internalType": "string",
          "name": "",
          "type": "string"
        },
        {
          "internalType": "string",
          "name": "",
          "type": "string"
        },
        {
          "internalType": "uint256",
          "name": "",
          "type": "uint256"
        },
        {
          "internalType": "bool",
          "name": "",
          "type": "bool"
        }
      ],
      "stateMutability": "view",
      "type": "function",
      "constant": true
    },
    {
      "inputs": [],
      "name": "getAllEmployeeIds",
      "outputs": [
        {
          "internalType": "string[]",
          "name": "",
          "type": "string[]"
        }
      ],
      "stateMutability": "view",
      "type": "function",
      "constant": true
    }
  ],
  "bytecode": "0x608060405234801561001057600080fd5b5033600260006101000a81548173ffffffffffffffffffffffffffffffffffffffff021916908373ffffffffffffffffffffffffffffffffffffffff1602179055506113d6806100616000396000f3fe608060405234801561001057600080fd5b50600436106100575760003560e01c806315f680e11461005c5780631fcf522f14610078578063283fb317146100965780633e9231cd146100b257806385c5225c146100ce575b600080fd5b61007660048036038101906100719190610b2e565b610101565b005b610080610300565b60405161008d9190610ce7565b60405180910390f35b6100b060048036038101906100ab9190610d09565b6103d9565b005b6100cc60048036038101906100c79190610b2e565b6105e1565b005b6100e860048036038101906100e39190610d09565b6107ed565b6040516100f89493929190610dd0565b60405180910390f35b600260009054906101000a900473ffffffffffffffffffffffffffffffffffffffff1673ffffffffffffffffffffffffffffffffffffffff163373ffffffffffffffffffffffffffffffffffffffff1614610191576040517f08c379a000000000000000000000000000000000000000000000000000000000815260040161018890610e6f565b60405180910390fd5b600080836040516101a29190610ecb565b908152602001604051809103902060000180546101be90610f11565b905011610200576040517f08c379a00000000000000000000000000000000000000000000000000000000081526004016101f790610f8e565b60405180910390fd5b6000826040516102109190610ecb565b908152602001604051809103902060030160009054906101000a900460ff1661026e576040517f08c379a000000000000000000000000000000000000000000000000000000000815260040161026590610ffa565b60405180910390fd5b8060008360405161027f9190610ecb565b9081526020016040518091039020600101908161029c91906111c6565b50426000836040516102ae9190610ecb565b9081526020016040518091039020600201819055507f7d5eaf5b3069d439786525035d92013c6f1cfaef0c2395d07100f336d273e04282426040516102f4929190611298565b60405180910390a15050565b60606001805480602002602001604051908101604052809291908181526020016000905b828210156103d057838290600052602060002001805461034390610f11565b80601f016020809104026020016040519081016040528092919081815260200182805461036f90610f11565b80156103bc5780601f10610391576101008083540402835291602001916103bc565b820191906000526020600020905b81548152906001019060200180831161039f57829003601f168201915b505050505081526020019060010190610324565b50505050905090565b600260009054906101000a900473ffffffffffffffffffffffffffffffffffffffff1673ffffffffffffffffffffffffffffffffffffffff163373ffffffffffffffffffffffffffffffffffffffff1614610469576040517f08c379a000000000000000000000000000000000000000000000000000000000815260040161046090610e6f565b60405180910390fd5b6000808260405161047a9190610ecb565b9081526020016040518091039020600001805461049690610f11565b9050116104d8576040517f08c379a00000000000000000000000000000000000000000000000000000000081526004016104cf90610f8e565b60405180910390fd5b6000816040516104e89190610ecb565b908152602001604051809103902060030160009054906101000a900460ff16610546576040517f08c379a000000000000000000000000000000000000000000000000000000000815260040161053d90611314565b60405180910390fd5b600080826040516105579190610ecb565b908152602001604051809103902060030160006101000a81548160ff021916908315150217905550426000826040516105909190610ecb565b9081526020016040518091039020600201819055507fc6650377a5d3ea9d8b8a947a244c5a9ee4b9f426f32a06b71a7400f191a234ec81426040516105d6929190611298565b60405180910390a150565b600260009054906101000a900473ffffffffffffffffffffffffffffffffffffffff1673ffffffffffffffffffffffffffffffffffffffff163373ffffffffffffffffffffffffffffffffffffffff1614610671576040517f08c379a000000000000000000000000000000000000000000000000000000000815260040161066890610e6f565b60405180910390fd5b600080836040516106829190610ecb565b9081526020016040518091039020600001805461069e90610f11565b9050146106e0576040517f08c379a00000000000000000000000000000000000000000000000000000000081526004016106d790611380565b60405180910390fd5b6040518060800160405280838152602001828152602001428152602001600115158152506000836040516107149190610ecb565b9081526020016040518091039020600082015181600001908161073791906111c6565b50602082015181600101908161074d91906111c6565b506040820151816002015560608201518160030160006101000a81548160ff0219169083151502179055509050506001829080600181540180825580915050600190039060005260206000200160009091909190915090816107af91906111c6565b507f32e1fc78a060d9f3ce5eb63a23bda8968a9bc65803f653d3003a7309f6e0aad982426040516107e1929190611298565b60405180910390a15050565b606080600080600080866040516108049190610ecb565b908152602001604051809103902060405180608001604052908160008201805461082d90610f11565b80601f016020809104026020016040519081016040528092919081815260200182805461085990610f11565b80156108a65780601f1061087b576101008083540402835291602001916108a6565b820191906000526020600020905b81548152906001019060200180831161088957829003601f168201915b505050505081526020016001820180546108bf90610f11565b80601f01602080910402602001604051908101604052809291908181526020018280546108eb90610f11565b80156109385780601f1061090d57610100808354040283529160200191610938565b820191906000526020600020905b81548152906001019060200180831161091b57829003601f168201915b50505050508152602001600282015481526020016003820160009054906101000a900460ff16151515158152505090506000816000015151116109b0576040517f08c379a00000000000000000000000000000000000000000000000000000000081526004016109a790610f8e565b60405180910390fd5b80600001518160200151826040015183606001519450945094509450509193509193565b6000604051905090565b600080fd5b600080fd5b600080fd5b600080fd5b6000601f19601f8301169050919050565b7f4e487b7100000000000000000000000000000000000000000000000000000000600052604160045260246000fd5b610a3b826109f2565b810181811067ffffffffffffffff82111715610a5a57610a59610a03565b5b80604052505050565b6000610a6d6109d4565b9050610a798282610a32565b919050565b600067ffffffffffffffff821115610a9957610a98610a03565b5b610aa2826109f2565b9050602081019050919050565b82818337600083830152505050565b6000610ad1610acc84610a7e565b610a63565b905082815260208101848484011115610aed57610aec6109ed565b5b610af8848285610aaf565b509392505050565b600082601f830112610b1557610b146109e8565b5b8135610b25848260208601610abe565b91505092915050565b60008060408385031215610b4557610b446109de565b5b600083013567ffffffffffffffff811115610b6357610b626109e3565b5b610b6f85828601610b00565b925050602083013567ffffffffffffffff811115610b9057610b8f6109e3565b5b610b9c85828601610b00565b9150509250929050565b600081519050919050565b600082825260208201905092915050565b6000819050602082019050919050565b600081519050919050565b600082825260208201905092915050565b60005b83811015610c0c578082015181840152602081019050610bf1565b60008484015250505050565b6000610c2382610bd2565b610c2d8185610bdd565b9350610c3d818560208601610bee565b610c46816109f2565b840191505092915050565b6000610c5d8383610c18565b905092915050565b6000602082019050919050565b6000610c7d82610ba6565b610c878185610bb1565b935083602082028501610c9985610bc2565b8060005b85811015610cd55784840389528151610cb68582610c51565b9450610cc183610c65565b925060208a01995050600181019050610c9d565b50829750879550505050505092915050565b60006020820190508181036000830152610d018184610c72565b905092915050565b600060208284031215610d1f57610d1e6109de565b5b600082013567ffffffffffffffff811115610d3d57610d3c6109e3565b5b610d4984828501610b00565b91505092915050565b600082825260208201905092915050565b6000610d6e82610bd2565b610d788185610d52565b9350610d88818560208601610bee565b610d91816109f2565b840191505092915050565b6000819050919050565b610daf81610d9c565b82525050565b60008115159050919050565b610dca81610db5565b82525050565b60006080820190508181036000830152610dea8187610d63565b90508181036020830152610dfe8186610d63565b9050610e0d6040830185610da6565b610e1a6060830184610dc1565b95945050505050565b7f4e6f7420617574686f72697a6564000000000000000000000000000000000000600082015250565b6000610e59600e83610d52565b9150610e6482610e23565b602082019050919050565b60006020820190508181036000830152610e8881610e4c565b9050919050565b600081905092915050565b6000610ea582610bd2565b610eaf8185610e8f565b9350610ebf818560208601610bee565b80840191505092915050565b6000610ed78284610e9a565b915081905092915050565b7f4e487b7100000000000000000000000000000000000000000000000000000000600052602260045260246000fd5b60006002820490506001821680610f2957607f821691505b602082108103610f3c57610f3b610ee2565b5b50919050565b7f456d706c6f79656520646f6573206e6f74206578697374000000000000000000600082015250565b6000610f78601783610d52565b9150610f8382610f42565b602082019050919050565b60006020820190508181036000830152610fa781610f6b565b9050919050565b7f456d706c6f796565206973206e6f742061637469766500000000000000000000600082015250565b6000610fe4601683610d52565b9150610fef82610fae565b602082019050919050565b6000602082019050818103600083015261101381610fd7565b9050919050565b60008190508160005260206000209050919050565b60006020601f8301049050919050565b600082821b905092915050565b60006008830261107c7fffffffffffffffffffffffffffffffffffffffffffffffffffffffffffffffff8261103f565b611086868361103f565b95508019841693508086168417925050509392505050565b6000819050919050565b60006110c36110be6110b984610d9c565b61109e565b610d9c565b9050919050565b6000819050919050565b6110dd836110a8565b6110f16110e9826110ca565b84845461104c565b825550505050565b600090565b6111066110f9565b6111118184846110d4565b505050565b5b818110156111355761112a6000826110fe565b600181019050611117565b5050565b601f82111561117a5761114b8161101a565b6111548461102f565b81016020851015611163578190505b61117761116f8561102f565b830182611116565b50505b505050565b600082821c905092915050565b600061119d6000198460080261117f565b1980831691505092915050565b60006111b6838361118c565b9150826002028217905092915050565b6111cf82610bd2565b67ffffffffffffffff8111156111e8576111e7610a03565b5b6111f28254610f11565b6111fd828285611139565b600060209050601f831160018114611230576000841561121e578287015190505b61122885826111aa565b865550611290565b601f19841661123e8661101a565b60005b8281101561126657848901518255600182019150602085019450602081019050611241565b86831015611283578489015161127f601f89168261118c565b8355505b6001600288020188555050505b505050505050565b600060408201905081810360008301526112b28185610d63565b90506112c16020830184610da6565b9392505050565b7f456d706c6f79656520616c726561647920696e61637469766500000000000000600082015250565b60006112fe601983610d52565b9150611309826112c8565b602082019050919050565b6000602082019050818103600083015261132d816112f1565b9050919050565b7f456d706c6f79656520616c726561647920657869737473000000000000000000600082015250565b600061136a601783610d52565b915061137582611334565b602082019050919050565b600060208201905081810360008301526113998161135d565b905091905056fea264697066735822122017bb1168a6c98b4acbb95a348381675d365e8e76863d59ad9b88f0dab79cf5d964736f6c63430008130033",
  "immutableReferences": {},
  "source": "// SPDX-License-Identifier: MIT\r\npragma solidity ^0.8.0;\r\n\r\ncontract EmployeeRegistry {\r\n    struct Employee {\r\n        string employeeId;\r\n        string encryptedData;\r\n        uint256 timestamp;\r\n        bool isActive;\r\n    }\r\n    \r\n    mapping(string => Employee) private employees;\r\n    string[] private employeeIds;\r\n    address private owner;\r\n    \r\n    event EmployeeAdded(string employeeId, uint256 timestamp);\r\n    event EmployeeUpdated(string employeeId, uint256 timestamp);\r\n    event EmployeeDeactivated(string employeeId, uint256 timestamp);\r\n    \r\n    constructor() {\r\n        owner = msg.sender;\r\n    }\r\n    \r\n    modifier onlyOwner() {\r\n        require(msg.sender == owner, \"Not authorized\");\r\n        _;\r\n    }\r\n    \r\n    function addEmployee(string memory _employeeId, string memory _encryptedData) public onlyOwner {\r\n        require(bytes(employees[_employeeId].employeeId).length == 0, \"Employee already exists\");\r\n        \r\n        employees[_employeeId] = Employee({\r\n            employeeId: _employeeId,\r\n            encryptedData: _encryptedData,\r\n            timestamp: block.timestamp,\r\n            isActive: true\r\n        });\r\n        \r\n        employeeIds.push(_employeeId);\r\n        emit EmployeeAdded(_employeeId, block.timestamp);\r\n    }\r\n    \r\n    function updateEmployee(string memory _employeeId, string memory _encryptedData) public onlyOwner {\r\n        require(bytes(employees[_employeeId].employeeId).length > 0, \"Employee does not exist\");\r\n        require(employees[_employeeId].isActive, \"Employee is not active\");\r\n        \r\n        employees[_employeeId].encryptedData = _encryptedData;\r\n        employees[_employeeId].timestamp = block.timestamp;\r\n        \r\n        emit EmployeeUpdated(_employeeId, block.timestamp);\r\n    }\r\n    \r\n    function deactivateEmployee(string memory _employeeId) public onlyOwner {\r\n        require(bytes(employees[_employeeId].employeeId).length > 0, \"Employee does not exist\");\r\n        require(employees[_employeeId].isActive, \"Employee already inactive\");\r\n        \r\n        employees[_employeeId].isActive = false;\r\n        employees[_employeeId].timestamp = block.timestamp;\r\n        \r\n        emit EmployeeDeactivated(_employeeId, block.timestamp);\r\n    }\r\n    \r\n    function getEmployee(string memory _employeeId) public view returns (string memory, string memory, uint256, bool) {\r\n        Employee memory employee = employees[_employeeId];\r\n        require(bytes(employee.employeeId).length > 0, \"Employee does not exist\");\r\n        \r\n        return (\r\n            employee.employeeId,\r\n            employee.encryptedData,\r\n            employee.timestamp,\r\n            employee.isActive\r\n        );\r\n    }\r\n    \r\n    function getAllEmployeeIds() public view returns (string[] memory) {\r\n        return employeeIds;\r\n    }\r\n}",
  "sourcePath": "D:\\Backend\\code\\HRM-Backend\\CoreChainServer\\src\\blockchain\\contracts\\EmployeeRegistry.sol",
  "compiler": {
    "name": "solc",
    "version": "0.8.19+commit.7dd6d404.Emscripten.clang"
  },
  "schemaVersion": "3.4.16",
  "updatedAt": "2025-03-20T03:30:18.390Z",
  "networkType": "ethereum",
  "devdoc": {
    "kind": "dev",
    "methods": {},
    "version": 1
  },
  "userdoc": {
    "kind": "user",
    "methods": {},
    "version": 1
  }
}